{
  "contractName": "Propietario",
  "abi": [
    {
      "constant": true,
      "inputs": [],
      "name": "codigo",
      "outputs": [
        {
          "name": "",
          "type": "uint8"
        }
      ],
      "payable": false,
      "stateMutability": "view",
      "type": "function",
      "signature": "0x132b8d3c"
    },
    {
      "constant": true,
      "inputs": [],
      "name": "precio",
      "outputs": [
        {
          "name": "",
          "type": "uint8"
        }
      ],
      "payable": false,
      "stateMutability": "view",
      "type": "function",
      "signature": "0x9e66e0f3"
    },
    {
      "constant": true,
      "inputs": [],
      "name": "nombre",
      "outputs": [
        {
          "name": "",
          "type": "string"
        }
      ],
      "payable": false,
      "stateMutability": "view",
      "type": "function",
      "signature": "0xbc7b35b2"
    },
    {
      "constant": true,
      "inputs": [],
      "name": "ninvitaciones",
      "outputs": [
        {
          "name": "",
          "type": "uint8"
        }
      ],
      "payable": false,
      "stateMutability": "view",
      "type": "function",
      "signature": "0xd8a02da1"
    },
    {
      "payable": false,
      "stateMutability": "nonpayable",
      "type": "fallback"
    },
    {
      "constant": false,
      "inputs": [
        {
          "name": "_nombre",
          "type": "string"
        },
        {
          "name": "_codigo",
          "type": "uint8"
        },
        {
          "name": "_ninvitaciones",
          "type": "uint8"
        },
        {
          "name": "_precio",
          "type": "uint8"
        }
      ],
      "name": "set",
      "outputs": [],
      "payable": false,
      "stateMutability": "nonpayable",
      "type": "function",
      "signature": "0x388f169b"
    }
  ],
  "bytecode": "0x608060405234801561001057600080fd5b506104a5806100206000396000f3fe60806040526004361061006d576000357c0100000000000000000000000000000000000000000000000000000000900463ffffffff168063132b8d3c1461007f578063388f169b146100b05780639e66e0f31461019f578063bc7b35b2146101d0578063d8a02da114610260575b34801561007957600080fd5b50600080fd5b34801561008b57600080fd5b50610094610291565b604051808260ff1660ff16815260200191505060405180910390f35b3480156100bc57600080fd5b5061019d600480360360808110156100d357600080fd5b81019080803590602001906401000000008111156100f057600080fd5b82018360208201111561010257600080fd5b8035906020019184600183028401116401000000008311171561012457600080fd5b91908080601f016020809104026020016040519081016040528093929190818152602001838380828437600081840152601f19601f820116905080830192505050505050509192919290803560ff169060200190929190803560ff169060200190929190803560ff1690602001909291905050506102a4565b005b3480156101ab57600080fd5b506101b4610311565b604051808260ff1660ff16815260200191505060405180910390f35b3480156101dc57600080fd5b506101e5610324565b6040518080602001828103825283818151815260200191508051906020019080838360005b8381101561022557808201518184015260208101905061020a565b50505050905090810190601f1680156102525780820380516001836020036101000a031916815260200191505b509250505060405180910390f35b34801561026c57600080fd5b506102756103c2565b604051808260ff1660ff16815260200191505060405180910390f35b600160009054906101000a900460ff1681565b83600090805190602001906102ba9291906103d4565b5082600160006101000a81548160ff021916908360ff160217905550816001806101000a81548160ff021916908360ff16021790555080600160026101000a81548160ff021916908360ff16021790555050505050565b600160029054906101000a900460ff1681565b60008054600181600116156101000203166002900480601f0160208091040260200160405190810160405280929190818152602001828054600181600116156101000203166002900480156103ba5780601f1061038f576101008083540402835291602001916103ba565b820191906000526020600020905b81548152906001019060200180831161039d57829003601f168201915b505050505081565b6001809054906101000a900460ff1681565b828054600181600116156101000203166002900490600052602060002090601f016020900481019282601f1061041557805160ff1916838001178555610443565b82800160010185558215610443579182015b82811115610442578251825591602001919060010190610427565b5b5090506104509190610454565b5090565b61047691905b8082111561047257600081600090555060010161045a565b5090565b9056fea165627a7a723058200049e0f88b8ada3066b73dc7bb0a1f62e0d80782da2c544c1fc0d90cf98749ea0029",
  "source": "pragma solidity ^0.5.0;\ncontract Propietario {\n    string public nombre;\n    uint8 public codigo;\n    uint8 public ninvitaciones;\n    uint8 public precio;\n\n   function set(string memory _nombre, uint8  _codigo , uint8  _ninvitaciones, uint8  _precio ) public{\n      nombre=_nombre;\n      codigo=_codigo;\n      ninvitaciones=_ninvitaciones;\n      precio=_precio;\n   }\n\n    function() external {\n        revert();\n} }\n",
  "sourcePath": "/Users/edermiranda/Dropbox/TFM/Factoria/fac/contracts/Propietario.sol",
  "compiler": {
    "name": "solc",
    "version": "0.5.0+commit.1d4f565a.Emscripten.clang"
  },
  "schemaVersion": "3.0.3",
  "updatedAt": "2019-06-13T15:32:35.494Z",
  "devdoc": {
    "methods": {}
  },
  "userdoc": {
    "methods": {}
  }
}