{
  "contractName": "Factoria",
  "abi": [
    {
      "constant": true,
      "inputs": [
        {
          "name": "",
          "type": "uint256"
        }
      ],
      "name": "contratos",
      "outputs": [
        {
          "name": "",
          "type": "address"
        }
      ],
      "payable": false,
      "stateMutability": "view",
      "type": "function",
      "signature": "0x3a00a1d1"
    },
    {
      "constant": true,
      "inputs": [
        {
          "name": "",
          "type": "uint256"
        }
      ],
      "name": "clientes",
      "outputs": [
        {
          "name": "",
          "type": "address"
        }
      ],
      "payable": false,
      "stateMutability": "view",
      "type": "function",
      "signature": "0x71a12969"
    },
    {
      "constant": true,
      "inputs": [
        {
          "name": "",
          "type": "uint256"
        }
      ],
      "name": "invitaciones",
      "outputs": [
        {
          "name": "",
          "type": "address"
        }
      ],
      "payable": false,
      "stateMutability": "view",
      "type": "function",
      "signature": "0x72309b84"
    },
    {
      "constant": true,
      "inputs": [],
      "name": "addr",
      "outputs": [
        {
          "name": "",
          "type": "address"
        }
      ],
      "payable": false,
      "stateMutability": "view",
      "type": "function",
      "signature": "0x767800de"
    },
    {
      "constant": true,
      "inputs": [],
      "name": "nContratos",
      "outputs": [
        {
          "name": "",
          "type": "uint8"
        }
      ],
      "payable": false,
      "stateMutability": "view",
      "type": "function",
      "signature": "0x7ebe69e7"
    },
    {
      "constant": true,
      "inputs": [],
      "name": "nPropietarios",
      "outputs": [
        {
          "name": "",
          "type": "uint8"
        }
      ],
      "payable": false,
      "stateMutability": "view",
      "type": "function",
      "signature": "0x852de580"
    },
    {
      "constant": true,
      "inputs": [],
      "name": "nClientes",
      "outputs": [
        {
          "name": "",
          "type": "uint8"
        }
      ],
      "payable": false,
      "stateMutability": "view",
      "type": "function",
      "signature": "0x95b209b3"
    },
    {
      "constant": true,
      "inputs": [
        {
          "name": "",
          "type": "uint256"
        }
      ],
      "name": "propietarios",
      "outputs": [
        {
          "name": "",
          "type": "address"
        }
      ],
      "payable": false,
      "stateMutability": "view",
      "type": "function",
      "signature": "0xc5e89c77"
    },
    {
      "constant": true,
      "inputs": [
        {
          "name": "",
          "type": "uint256"
        }
      ],
      "name": "invi",
      "outputs": [
        {
          "name": "",
          "type": "address"
        }
      ],
      "payable": false,
      "stateMutability": "view",
      "type": "function",
      "signature": "0xd18163d8"
    },
    {
      "inputs": [],
      "payable": false,
      "stateMutability": "nonpayable",
      "type": "constructor",
      "signature": "constructor"
    },
    {
      "payable": false,
      "stateMutability": "nonpayable",
      "type": "fallback"
    },
    {
      "anonymous": false,
      "inputs": [
        {
          "indexed": false,
          "name": "msg",
          "type": "string"
        },
        {
          "indexed": false,
          "name": "out",
          "type": "uint8"
        }
      ],
      "name": "Tic",
      "type": "event",
      "signature": "0x278733a8e0534f74d81486a11876429bb0d35a6968fa576ec403ad7aecfa2e6e"
    },
    {
      "constant": false,
      "inputs": [],
      "name": "crearC",
      "outputs": [],
      "payable": false,
      "stateMutability": "nonpayable",
      "type": "function",
      "signature": "0x24832880"
    },
    {
      "constant": false,
      "inputs": [
        {
          "name": "_dia",
          "type": "uint8"
        },
        {
          "name": "_puntero",
          "type": "uint8"
        },
        {
          "name": "_punteroIni",
          "type": "uint8"
        }
      ],
      "name": "crearInvitacion",
      "outputs": [],
      "payable": false,
      "stateMutability": "nonpayable",
      "type": "function",
      "signature": "0x57400173"
    },
    {
      "constant": false,
      "inputs": [
        {
          "name": "_matricula",
          "type": "string"
        }
      ],
      "name": "crearCliente",
      "outputs": [],
      "payable": false,
      "stateMutability": "nonpayable",
      "type": "function",
      "signature": "0x50eacac2"
    },
    {
      "constant": false,
      "inputs": [
        {
          "name": "_nombre",
          "type": "string"
        },
        {
          "name": "_codigo",
          "type": "uint8"
        },
        {
          "name": "_ninivitaciones",
          "type": "uint8"
        },
        {
          "name": "_precio",
          "type": "uint8"
        }
      ],
      "name": "crearPropietario",
      "outputs": [],
      "payable": false,
      "stateMutability": "nonpayable",
      "type": "function",
      "signature": "0x1701818d"
    },
    {
      "constant": false,
      "inputs": [
        {
          "name": "_dia",
          "type": "uint256"
        }
      ],
      "name": "getInvitacion",
      "outputs": [
        {
          "name": "addr",
          "type": "address"
        }
      ],
      "payable": false,
      "stateMutability": "nonpayable",
      "type": "function",
      "signature": "0xe5cdcc1d"
    }
  ],
  "bytecode": "0x608060405260008060146101000a81548160ff021916908360ff16021790555060008060156101000a81548160ff021916908360ff16021790555060008060166101000a81548160ff021916908360ff16021790555034801561006157600080fd5b50336000806101000a81548173ffffffffffffffffffffffffffffffffffffffff021916908373ffffffffffffffffffffffffffffffffffffffff1602179055506126e6806100b16000396000f3fe6080604052600436106100d0576000357c0100000000000000000000000000000000000000000000000000000000900463ffffffff1680631701818d146100e257806324832880146101d15780633a00a1d1146101e857806350eacac214610263578063574001731461032b57806371a129691461038357806372309b84146103fe578063767800de146104795780637ebe69e7146104d0578063852de5801461050157806395b209b314610532578063c5e89c7714610563578063d18163d8146105de578063e5cdcc1d14610659575b3480156100dc57600080fd5b50600080fd5b3480156100ee57600080fd5b506101cf6004803603608081101561010557600080fd5b810190808035906020019064010000000081111561012257600080fd5b82018360208201111561013457600080fd5b8035906020019184600183028401116401000000008311171561015657600080fd5b91908080601f016020809104026020016040519081016040528093929190818152602001838380828437600081840152601f19601f820116905080830192505050505050509192919290803560ff169060200190929190803560ff169060200190929190803560ff1690602001909291905050506106d4565b005b3480156101dd57600080fd5b506101e6610937565b005b3480156101f457600080fd5b506102216004803603602081101561020b57600080fd5b8101908080359060200190929190505050610add565b604051808273ffffffffffffffffffffffffffffffffffffffff1673ffffffffffffffffffffffffffffffffffffffff16815260200191505060405180910390f35b34801561026f57600080fd5b506103296004803603602081101561028657600080fd5b81019080803590602001906401000000008111156102a357600080fd5b8201836020820111156102b557600080fd5b803590602001918460018302840111640100000000831117156102d757600080fd5b91908080601f016020809104026020016040519081016040528093929190818152602001838380828437600081840152601f19601f820116905080830192505050505050509192919290505050610b1b565b005b34801561033757600080fd5b506103816004803603606081101561034e57600080fd5b81019080803560ff169060200190929190803560ff169060200190929190803560ff169060200190929190505050610d85565b005b34801561038f57600080fd5b506103bc600480360360208110156103a657600080fd5b810190808035906020019092919050505061104e565b604051808273ffffffffffffffffffffffffffffffffffffffff1673ffffffffffffffffffffffffffffffffffffffff16815260200191505060405180910390f35b34801561040a57600080fd5b506104376004803603602081101561042157600080fd5b810190808035906020019092919050505061108c565b604051808273ffffffffffffffffffffffffffffffffffffffff1673ffffffffffffffffffffffffffffffffffffffff16815260200191505060405180910390f35b34801561048557600080fd5b5061048e6110ca565b604051808273ffffffffffffffffffffffffffffffffffffffff1673ffffffffffffffffffffffffffffffffffffffff16815260200191505060405180910390f35b3480156104dc57600080fd5b506104e56110ef565b604051808260ff1660ff16815260200191505060405180910390f35b34801561050d57600080fd5b50610516611102565b604051808260ff1660ff16815260200191505060405180910390f35b34801561053e57600080fd5b50610547611115565b604051808260ff1660ff16815260200191505060405180910390f35b34801561056f57600080fd5b5061059c6004803603602081101561058657600080fd5b8101908080359060200190929190505050611128565b604051808273ffffffffffffffffffffffffffffffffffffffff1673ffffffffffffffffffffffffffffffffffffffff16815260200191505060405180910390f35b3480156105ea57600080fd5b506106176004803603602081101561060157600080fd5b8101908080359060200190929190505050611166565b604051808273ffffffffffffffffffffffffffffffffffffffff1673ffffffffffffffffffffffffffffffffffffffff16815260200191505060405180910390f35b34801561066557600080fd5b506106926004803603602081101561067c57600080fd5b8101908080359060200190929190505050611199565b604051808273ffffffffffffffffffffffffffffffffffffffff1673ffffffffffffffffffffffffffffffffffffffff16815260200191505060405180910390f35b60006106de6111d6565b604051809103906000f0801580156106fa573d6000803e3d6000fd5b5090508073ffffffffffffffffffffffffffffffffffffffff1663388f169b868686866040518563ffffffff167c010000000000000000000000000000000000000000000000000000000002815260040180806020018560ff1660ff1681526020018460ff1660ff1681526020018360ff1660ff168152602001828103825286818151815260200191508051906020019080838360005b838110156107ac578082015181840152602081019050610791565b50505050905090810190601f1680156107d95780820380516001836020036101000a031916815260200191505b5095505050505050600060405180830381600087803b1580156107fb57600080fd5b505af115801561080f573d6000803e3d6000fd5b5050505060058190806001815401808255809150509060018203906000526020600020016000909192909190916101000a81548173ffffffffffffffffffffffffffffffffffffffff021916908373ffffffffffffffffffffffffffffffffffffffff160217905550506000601581819054906101000a900460ff168092919060010191906101000a81548160ff021916908360ff160217905550507f278733a8e0534f74d81486a11876429bb0d35a6968fa576ec403ad7aecfa2e6e600060159054906101000a900460ff1660405180806020018360ff1660ff1681526020018281038252600b8152602001807f41637475616c697a61646f0000000000000000000000000000000000000000008152506020019250505060405180910390a15050505050565b61093f6111e6565b604051809103906000f08015801561095b573d6000803e3d6000fd5b50600660006101000a81548173ffffffffffffffffffffffffffffffffffffffff021916908373ffffffffffffffffffffffffffffffffffffffff1602179055506001600660009054906101000a900473ffffffffffffffffffffffffffffffffffffffff1690806001815401808255809150509060018203906000526020600020016000909192909190916101000a81548173ffffffffffffffffffffffffffffffffffffffff021916908373ffffffffffffffffffffffffffffffffffffffff160217905550506000601481819054906101000a900460ff168092919060010191906101000a81548160ff021916908360ff160217905550507f278733a8e0534f74d81486a11876429bb0d35a6968fa576ec403ad7aecfa2e6e600060149054906101000a900460ff1660405180806020018360ff1660ff1681526020018281038252600b8152602001807f41637475616c697a61646f0000000000000000000000000000000000000000008152506020019250505060405180910390a1565b600181815481101515610aec57fe5b906000526020600020016000915054906101000a900473ffffffffffffffffffffffffffffffffffffffff1681565b6000610b256111f6565b604051809103906000f080158015610b41573d6000803e3d6000fd5b5090508073ffffffffffffffffffffffffffffffffffffffff1663a815ff1583336040518363ffffffff167c010000000000000000000000000000000000000000000000000000000002815260040180806020018373ffffffffffffffffffffffffffffffffffffffff1673ffffffffffffffffffffffffffffffffffffffff168152602001828103825284818151815260200191508051906020019080838360005b83811015610bff578082015181840152602081019050610be4565b50505050905090810190601f168015610c2c5780820380516001836020036101000a031916815260200191505b509350505050600060405180830381600087803b158015610c4c57600080fd5b505af1158015610c60573d6000803e3d6000fd5b5050505060038190806001815401808255809150509060018203906000526020600020016000909192909190916101000a81548173ffffffffffffffffffffffffffffffffffffffff021916908373ffffffffffffffffffffffffffffffffffffffff160217905550506000601681819054906101000a900460ff168092919060010191906101000a81548160ff021916908360ff160217905550507f278733a8e0534f74d81486a11876429bb0d35a6968fa576ec403ad7aecfa2e6e600060149054906101000a900460ff1660405180806020018360ff1660ff1681526020018281038252600b8152602001807f41637475616c697a61646f0000000000000000000000000000000000000000008152506020019250505060405180910390a15050565b6000610d8f611206565b604051809103906000f080158015610dab573d6000803e3d6000fd5b5090508073ffffffffffffffffffffffffffffffffffffffff166324b8ba5f856040518263ffffffff167c0100000000000000000000000000000000000000000000000000000000028152600401808260ff1660ff168152602001915050600060405180830381600087803b158015610e2357600080fd5b505af1158015610e37573d6000803e3d6000fd5b505050508073ffffffffffffffffffffffffffffffffffffffff1663949f82c184846040518363ffffffff167c0100000000000000000000000000000000000000000000000000000000028152600401808360ff1660ff1681526020018260ff1660ff16815260200192505050600060405180830381600087803b158015610ebe57600080fd5b505af1158015610ed2573d6000803e3d6000fd5b5050505060028190806001815401808255809150509060018203906000526020600020016000909192909190916101000a81548173ffffffffffffffffffffffffffffffffffffffff021916908373ffffffffffffffffffffffffffffffffffffffff1602179055505080600460008660ff16815260200190815260200160002060006101000a81548173ffffffffffffffffffffffffffffffffffffffff021916908373ffffffffffffffffffffffffffffffffffffffff1602179055506000601481819054906101000a900460ff168092919060010191906101000a81548160ff021916908360ff160217905550507f278733a8e0534f74d81486a11876429bb0d35a6968fa576ec403ad7aecfa2e6e600060149054906101000a900460ff1660405180806020018360ff1660ff1681526020018281038252600b8152602001807f41637475616c697a61646f0000000000000000000000000000000000000000008152506020019250505060405180910390a150505050565b60038181548110151561105d57fe5b906000526020600020016000915054906101000a900473ffffffffffffffffffffffffffffffffffffffff1681565b60028181548110151561109b57fe5b906000526020600020016000915054906101000a900473ffffffffffffffffffffffffffffffffffffffff1681565b6000809054906101000a900473ffffffffffffffffffffffffffffffffffffffff1681565b600060149054906101000a900460ff1681565b600060159054906101000a900460ff1681565b600060169054906101000a900460ff1681565b60058181548110151561113757fe5b906000526020600020016000915054906101000a900473ffffffffffffffffffffffffffffffffffffffff1681565b60046020528060005260406000206000915054906101000a900473ffffffffffffffffffffffffffffffffffffffff1681565b60006004600083815260200190815260200160002060009054906101000a900473ffffffffffffffffffffffffffffffffffffffff169050919050565b6040516104c58061121783390190565b6040516101d6806116dc83390190565b604051610447806118b283390190565b6040516109c280611cf98339019056fe608060405234801561001057600080fd5b506104a5806100206000396000f3fe60806040526004361061006d576000357c0100000000000000000000000000000000000000000000000000000000900463ffffffff168063132b8d3c1461007f578063388f169b146100b05780639e66e0f31461019f578063bc7b35b2146101d0578063d8a02da114610260575b34801561007957600080fd5b50600080fd5b34801561008b57600080fd5b50610094610291565b604051808260ff1660ff16815260200191505060405180910390f35b3480156100bc57600080fd5b5061019d600480360360808110156100d357600080fd5b81019080803590602001906401000000008111156100f057600080fd5b82018360208201111561010257600080fd5b8035906020019184600183028401116401000000008311171561012457600080fd5b91908080601f016020809104026020016040519081016040528093929190818152602001838380828437600081840152601f19601f820116905080830192505050505050509192919290803560ff169060200190929190803560ff169060200190929190803560ff1690602001909291905050506102a4565b005b3480156101ab57600080fd5b506101b4610311565b604051808260ff1660ff16815260200191505060405180910390f35b3480156101dc57600080fd5b506101e5610324565b6040518080602001828103825283818151815260200191508051906020019080838360005b8381101561022557808201518184015260208101905061020a565b50505050905090810190601f1680156102525780820380516001836020036101000a031916815260200191505b509250505060405180910390f35b34801561026c57600080fd5b506102756103c2565b604051808260ff1660ff16815260200191505060405180910390f35b600160009054906101000a900460ff1681565b83600090805190602001906102ba9291906103d4565b5082600160006101000a81548160ff021916908360ff160217905550816001806101000a81548160ff021916908360ff16021790555080600160026101000a81548160ff021916908360ff16021790555050505050565b600160029054906101000a900460ff1681565b60008054600181600116156101000203166002900480601f0160208091040260200160405190810160405280929190818152602001828054600181600116156101000203166002900480156103ba5780601f1061038f576101008083540402835291602001916103ba565b820191906000526020600020905b81548152906001019060200180831161039d57829003601f168201915b505050505081565b6001809054906101000a900460ff1681565b828054600181600116156101000203166002900490600052602060002090601f016020900481019282601f1061041557805160ff1916838001178555610443565b82800160010185558215610443579182015b82811115610442578251825591602001919060010190610427565b5b5090506104509190610454565b5090565b61047691905b8082111561047257600081600090555060010161045a565b5090565b9056fea165627a7a723058200049e0f88b8ada3066b73dc7bb0a1f62e0d80782da2c544c1fc0d90cf98749ea0029608060405260008060006101000a81548160ff021916908360ff16021790555034801561002b57600080fd5b5061019b8061003b6000396000f3fe60806040526004361061004c576000357c0100000000000000000000000000000000000000000000000000000000900463ffffffff168063119fbbd41461005e578063ecbac7cf14610075575b34801561005857600080fd5b50600080fd5b34801561006a57600080fd5b506100736100a6565b005b34801561008157600080fd5b5061008a61015d565b604051808260ff1660ff16815260200191505060405180910390f35b60008081819054906101000a900460ff168092919060010191906101000a81548160ff021916908360ff160217905550507f278733a8e0534f74d81486a11876429bb0d35a6968fa576ec403ad7aecfa2e6e6000809054906101000a900460ff1660405180806020018360ff1660ff1681526020018281038252600b8152602001807f41637475616c697a61646f0000000000000000000000000000000000000000008152506020019250505060405180910390a1565b6000809054906101000a900460ff168156fea165627a7a72305820caf8fbce1ed89c1e5022da11b69b3cf086e583872dd2facb1f03bdc1bfe977be0029608060405234801561001057600080fd5b50610427806100206000396000f3fe608060405260043610610057576000357c0100000000000000000000000000000000000000000000000000000000900463ffffffff168063767800de14610069578063a815ff15146100c0578063e2846830146101a8575b34801561006357600080fd5b50600080fd5b34801561007557600080fd5b5061007e610238565b604051808273ffffffffffffffffffffffffffffffffffffffff1673ffffffffffffffffffffffffffffffffffffffff16815260200191505060405180910390f35b3480156100cc57600080fd5b506101a6600480360360408110156100e357600080fd5b810190808035906020019064010000000081111561010057600080fd5b82018360208201111561011257600080fd5b8035906020019184600183028401116401000000008311171561013457600080fd5b91908080601f016020809104026020016040519081016040528093929190818152602001838380828437600081840152601f19601f820116905080830192505050505050509192919290803573ffffffffffffffffffffffffffffffffffffffff16906020019092919050505061025d565b005b3480156101b457600080fd5b506101bd6102b8565b6040518080602001828103825283818151815260200191508051906020019080838360005b838110156101fd5780820151818401526020810190506101e2565b50505050905090810190601f16801561022a5780820380516001836020036101000a031916815260200191505b509250505060405180910390f35b6000809054906101000a900473ffffffffffffffffffffffffffffffffffffffff1681565b8160019080519060200190610273929190610356565b50806000806101000a81548173ffffffffffffffffffffffffffffffffffffffff021916908373ffffffffffffffffffffffffffffffffffffffff1602179055505050565b60018054600181600116156101000203166002900480601f01602080910402602001604051908101604052809291908181526020018280546001816001161561010002031660029004801561034e5780601f106103235761010080835404028352916020019161034e565b820191906000526020600020905b81548152906001019060200180831161033157829003601f168201915b505050505081565b828054600181600116156101000203166002900490600052602060002090601f016020900481019282601f1061039757805160ff19168380011785556103c5565b828001600101855582156103c5579182015b828111156103c45782518255916020019190600101906103a9565b5b5090506103d291906103d6565b5090565b6103f891905b808211156103f45760008160009055506001016103dc565b5090565b9056fea165627a7a72305820a59b18c59f8fd061395ee49e554be356e720ffe23f0b87dc9792f3bba91843c80029608060405260008060006101000a81548160ff021916908360ff1602179055506001600060036101000a81548160ff021916908360ff1602179055506000600360006101000a81548160ff021916908360ff16021790555034801561006357600080fd5b5061094f806100736000396000f3fe6080604052600436106100c5576000357c0100000000000000000000000000000000000000000000000000000000900463ffffffff1680630ec4a0b3146100d757806312e030ec146101085780631e8f23b11461013957806324b8ba5f1461017757806353d27cc2146101b55780637d3e5e74146101e65780637f3295a314610224578063949f82c114610255578063c5e89c77146102a0578063c77e3e98146102f5578063c791813914610326578063d2a6316f146103da578063e1b83a61146104a2575b3480156100d157600080fd5b50600080fd5b3480156100e357600080fd5b506100ec610584565b604051808260ff1660ff16815260200191505060405180910390f35b34801561011457600080fd5b5061011d610597565b604051808260ff1660ff16815260200191505060405180910390f35b34801561014557600080fd5b506101756004803603602081101561015c57600080fd5b81019080803560ff1690602001909291905050506105aa565b005b34801561018357600080fd5b506101b36004803603602081101561019a57600080fd5b81019080803560ff1690602001909291905050506105f5565b005b3480156101c157600080fd5b506101ca610612565b604051808260ff1660ff16815260200191505060405180910390f35b3480156101f257600080fd5b506102226004803603602081101561020957600080fd5b81019080803560ff169060200190929190505050610625565b005b34801561023057600080fd5b50610239610643565b604051808260ff1660ff16815260200191505060405180910390f35b34801561026157600080fd5b5061029e6004803603604081101561027857600080fd5b81019080803560ff169060200190929190803560ff169060200190929190505050610656565b005b3480156102ac57600080fd5b506102d9600480360360208110156102c357600080fd5b8101908080359060200190929190505050610690565b604051808260ff1660ff16815260200191505060405180910390f35b34801561030157600080fd5b5061030a6106c3565b604051808260ff1660ff16815260200191505060405180910390f35b34801561033257600080fd5b5061035f6004803603602081101561034957600080fd5b81019080803590602001909291905050506106d5565b6040518080602001828103825283818151815260200191508051906020019080838360005b8381101561039f578082015181840152602081019050610384565b50505050905090810190601f1680156103cc5780820380516001836020036101000a031916815260200191505b509250505060405180910390f35b3480156103e657600080fd5b506104a0600480360360208110156103fd57600080fd5b810190808035906020019064010000000081111561041a57600080fd5b82018360208201111561042c57600080fd5b8035906020019184600183028401116401000000008311171561044e57600080fd5b91908080601f016020809104026020016040519081016040528093929190818152602001838380828437600081840152601f19601f820116905080830192505050505050509192919290505050610790565b005b3480156104ae57600080fd5b50610582600480360360608110156104c557600080fd5b81019080803590602001906401000000008111156104e257600080fd5b8201836020820111156104f457600080fd5b8035906020019184600183028401116401000000008311171561051657600080fd5b91908080601f016020809104026020016040519081016040528093929190818152602001838380828437600081840152601f19601f820116905080830192505050505050509192919290803560ff169060200190929190803560ff1690602001909291905050506107d2565b005b600360009054906101000a900460ff1681565b600060029054906101000a900460ff1681565b600281908060018154018082558091505090600182039060005260206000209060209182820401919006909192909190916101000a81548160ff021916908360ff1602179055505050565b806000806101000a81548160ff021916908360ff16021790555050565b600060039054906101000a900460ff1681565b80600060036101000a81548160ff021916908360ff16021790555050565b600060019054906101000a900460ff1681565b81600060016101000a81548160ff021916908360ff16021790555080600060026101000a81548160ff021916908360ff1602179055505050565b60028181548110151561069f57fe5b9060005260206000209060209182820401919006915054906101000a900460ff1681565b6000809054906101000a900460ff1681565b6001818154811015156106e457fe5b906000526020600020016000915090508054600181600116156101000203166002900480601f0160208091040260200160405190810160405280929190818152602001828054600181600116156101000203166002900480156107885780601f1061075d57610100808354040283529160200191610788565b820191906000526020600020905b81548152906001019060200180831161076b57829003601f168201915b505050505081565b60018190806001815401808255809150509060018203906000526020600020016000909192909190915090805190602001906107cd92919061087e565b505050565b600183908060018154018082558091505090600182039060005260206000200160009091929091909150908051906020019061080f92919061087e565b505081600060016101000a81548160ff021916908360ff16021790555080600060036101000a81548160ff021916908360ff1602179055506003600081819054906101000a900460ff168092919060010191906101000a81548160ff021916908360ff16021790555050505050565b828054600181600116156101000203166002900490600052602060002090601f016020900481019282601f106108bf57805160ff19168380011785556108ed565b828001600101855582156108ed579182015b828111156108ec5782518255916020019190600101906108d1565b5b5090506108fa91906108fe565b5090565b61092091905b8082111561091c576000816000905550600101610904565b5090565b9056fea165627a7a7230582007b5448d33b488c0e7e407ef54ec3a06fe6240781ac8faa63945026624b6af840029a165627a7a7230582095437ea58876913b34feff6420eacfb63104830e197f8c4d24b0b73e6a87d9020029",
  "source": "pragma solidity ^0.5.0;\nimport \"./Contador.sol\";\nimport \"./Invitacion.sol\";\nimport \"./Propietario.sol\";\nimport \"./Cliente.sol\";\ncontract Factoria {\n    address public addr;\n    uint8 public nContratos = 0;\n    uint8 public nPropietarios = 0;\n    uint8 public nClientes = 0;\n    event Tic(string msg, uint8 out);\n    address[] public contratos;\n    address[] public invitaciones;\n    address[] public clientes;\n    mapping(uint => address) public invi;\n    address[] public propietarios;\n    address newContract;\n\n\n    constructor () public{\n       addr = msg.sender;\n    }\n\n    function crearC() public {\n        newContract= address(new Contador());\n        contratos.push(newContract);\n        nContratos++;\n        emit Tic(\"Actualizado\", nContratos);\n    }\n\n    function crearInvitacion(uint8 _dia, uint8 _puntero, uint8 _punteroIni) public {\n        Invitacion newContract1= new Invitacion();\n        newContract1.set(_dia);\n        newContract1.anadirPuntero(_puntero,_punteroIni);\n        invitaciones.push(address(newContract1));\n        invi[_dia]=address(newContract1);\n        nContratos++;\n        emit Tic(\"Actualizado\", nContratos);\n    }\n\n    function crearCliente(string memory _matricula) public {\n        Cliente newContract1= new Cliente();\n        newContract1.set(_matricula,msg.sender);\n        clientes.push(address(newContract1));\n        nClientes++;\n        emit Tic(\"Actualizado\", nContratos);\n    }\n\n    function crearPropietario(string memory _nombre, uint8  _codigo , uint8  _ninivitaciones, uint8  _precio) public {\n        Propietario newContract1= new Propietario();\n        newContract1.set(_nombre, _codigo, _ninivitaciones, _precio);\n        propietarios.push(address(newContract1));\n        nPropietarios++;\n        emit Tic(\"Actualizado\", nPropietarios);\n    }\n\n    function getInvitacion(uint _dia) public returns (address addr){\n        return invi[_dia];\n    }\n\n    function() external {\n        revert();\n} }\n",
  "sourcePath": "/Users/edermiranda/Dropbox/TFM/Factoria/fac/contracts/Factoria.sol",
  "compiler": {
    "name": "solc",
    "version": "0.5.0+commit.1d4f565a.Emscripten.clang"
  },
  "schemaVersion": "3.0.3",
  "updatedAt": "2019-06-13T15:32:34.990Z",
  "devdoc": {
    "methods": {}
  },
  "userdoc": {
    "methods": {}
  }
}