{
  "contractName": "Contador",
  "abi": [
    {
      "constant": true,
      "inputs": [],
      "name": "valor",
      "outputs": [
        {
          "name": "",
          "type": "uint8"
        }
      ],
      "payable": false,
      "stateMutability": "view",
      "type": "function",
      "signature": "0xecbac7cf"
    },
    {
      "payable": false,
      "stateMutability": "nonpayable",
      "type": "fallback"
    },
    {
      "anonymous": false,
      "inputs": [
        {
          "indexed": false,
          "name": "msg",
          "type": "string"
        },
        {
          "indexed": false,
          "name": "out",
          "type": "uint8"
        }
      ],
      "name": "Tic",
      "type": "event",
      "signature": "0x278733a8e0534f74d81486a11876429bb0d35a6968fa576ec403ad7aecfa2e6e"
    },
    {
      "constant": false,
      "inputs": [],
      "name": "incr",
      "outputs": [],
      "payable": false,
      "stateMutability": "nonpayable",
      "type": "function",
      "signature": "0x119fbbd4"
    }
  ],
  "bytecode": "0x608060405260008060006101000a81548160ff021916908360ff16021790555034801561002b57600080fd5b5061019b8061003b6000396000f3fe60806040526004361061004c576000357c0100000000000000000000000000000000000000000000000000000000900463ffffffff168063119fbbd41461005e578063ecbac7cf14610075575b34801561005857600080fd5b50600080fd5b34801561006a57600080fd5b506100736100a6565b005b34801561008157600080fd5b5061008a61015d565b604051808260ff1660ff16815260200191505060405180910390f35b60008081819054906101000a900460ff168092919060010191906101000a81548160ff021916908360ff160217905550507f278733a8e0534f74d81486a11876429bb0d35a6968fa576ec403ad7aecfa2e6e6000809054906101000a900460ff1660405180806020018360ff1660ff1681526020018281038252600b8152602001807f41637475616c697a61646f0000000000000000000000000000000000000000008152506020019250505060405180910390a1565b6000809054906101000a900460ff168156fea165627a7a72305820caf8fbce1ed89c1e5022da11b69b3cf086e583872dd2facb1f03bdc1bfe977be0029",
  "source": "pragma solidity ^0.5.0;\ncontract Contador {\n    uint8 public valor = 0;\n    event Tic(string msg, uint8 out);\n    function incr() public {\n        valor++;\n        emit Tic(\"Actualizado\", valor);\n    }\n\n    function() external {\n        revert();\n} }\n",
  "sourcePath": "/Users/edermiranda/Dropbox/TFM/Factoria/fac/contracts/Contador.sol",
  "compiler": {
    "name": "solc",
    "version": "0.5.0+commit.1d4f565a.Emscripten.clang"
  },
  "schemaVersion": "3.0.3",
  "updatedAt": "2019-06-13T15:32:34.190Z",
  "devdoc": {
    "methods": {}
  },
  "userdoc": {
    "methods": {}
  }
}