{
  "contractName": "Invitacion",
  "abi": [
    {
      "constant": true,
      "inputs": [],
      "name": "nmatriculas",
      "outputs": [
        {
          "name": "",
          "type": "uint8"
        }
      ],
      "payable": false,
      "stateMutability": "view",
      "type": "function",
      "signature": "0x0ec4a0b3"
    },
    {
      "constant": true,
      "inputs": [],
      "name": "punteroIni",
      "outputs": [
        {
          "name": "",
          "type": "uint8"
        }
      ],
      "payable": false,
      "stateMutability": "view",
      "type": "function",
      "signature": "0x12e030ec"
    },
    {
      "constant": true,
      "inputs": [],
      "name": "contador",
      "outputs": [
        {
          "name": "",
          "type": "uint8"
        }
      ],
      "payable": false,
      "stateMutability": "view",
      "type": "function",
      "signature": "0x53d27cc2"
    },
    {
      "constant": true,
      "inputs": [],
      "name": "puntero",
      "outputs": [
        {
          "name": "",
          "type": "uint8"
        }
      ],
      "payable": false,
      "stateMutability": "view",
      "type": "function",
      "signature": "0x7f3295a3"
    },
    {
      "constant": true,
      "inputs": [
        {
          "name": "",
          "type": "uint256"
        }
      ],
      "name": "propietarios",
      "outputs": [
        {
          "name": "",
          "type": "uint8"
        }
      ],
      "payable": false,
      "stateMutability": "view",
      "type": "function",
      "signature": "0xc5e89c77"
    },
    {
      "constant": true,
      "inputs": [],
      "name": "dia",
      "outputs": [
        {
          "name": "",
          "type": "uint8"
        }
      ],
      "payable": false,
      "stateMutability": "view",
      "type": "function",
      "signature": "0xc77e3e98"
    },
    {
      "constant": true,
      "inputs": [
        {
          "name": "",
          "type": "uint256"
        }
      ],
      "name": "matriculas",
      "outputs": [
        {
          "name": "",
          "type": "string"
        }
      ],
      "payable": false,
      "stateMutability": "view",
      "type": "function",
      "signature": "0xc7918139"
    },
    {
      "payable": false,
      "stateMutability": "nonpayable",
      "type": "fallback"
    },
    {
      "constant": false,
      "inputs": [
        {
          "name": "_dia",
          "type": "uint8"
        }
      ],
      "name": "set",
      "outputs": [],
      "payable": false,
      "stateMutability": "nonpayable",
      "type": "function",
      "signature": "0x24b8ba5f"
    },
    {
      "constant": false,
      "inputs": [
        {
          "name": "matricula",
          "type": "string"
        }
      ],
      "name": "anadirMatricula",
      "outputs": [],
      "payable": false,
      "stateMutability": "nonpayable",
      "type": "function",
      "signature": "0xd2a6316f"
    },
    {
      "constant": false,
      "inputs": [
        {
          "name": "_puntero",
          "type": "uint8"
        },
        {
          "name": "_punteroIni",
          "type": "uint8"
        }
      ],
      "name": "anadirPuntero",
      "outputs": [],
      "payable": false,
      "stateMutability": "nonpayable",
      "type": "function",
      "signature": "0x949f82c1"
    },
    {
      "constant": false,
      "inputs": [
        {
          "name": "_contador",
          "type": "uint8"
        }
      ],
      "name": "anadirContador",
      "outputs": [],
      "payable": false,
      "stateMutability": "nonpayable",
      "type": "function",
      "signature": "0x7d3e5e74"
    },
    {
      "constant": false,
      "inputs": [
        {
          "name": "codigo",
          "type": "uint8"
        }
      ],
      "name": "anadirCodigo",
      "outputs": [],
      "payable": false,
      "stateMutability": "nonpayable",
      "type": "function",
      "signature": "0x1e8f23b1"
    },
    {
      "constant": false,
      "inputs": [
        {
          "name": "matricula",
          "type": "string"
        },
        {
          "name": "_puntero",
          "type": "uint8"
        },
        {
          "name": "_contador",
          "type": "uint8"
        }
      ],
      "name": "anadirTodo",
      "outputs": [],
      "payable": false,
      "stateMutability": "nonpayable",
      "type": "function",
      "signature": "0xe1b83a61"
    }
  ],
  "bytecode": "0x608060405260008060006101000a81548160ff021916908360ff1602179055506001600060036101000a81548160ff021916908360ff1602179055506000600360006101000a81548160ff021916908360ff16021790555034801561006357600080fd5b5061094f806100736000396000f3fe6080604052600436106100c5576000357c0100000000000000000000000000000000000000000000000000000000900463ffffffff1680630ec4a0b3146100d757806312e030ec146101085780631e8f23b11461013957806324b8ba5f1461017757806353d27cc2146101b55780637d3e5e74146101e65780637f3295a314610224578063949f82c114610255578063c5e89c77146102a0578063c77e3e98146102f5578063c791813914610326578063d2a6316f146103da578063e1b83a61146104a2575b3480156100d157600080fd5b50600080fd5b3480156100e357600080fd5b506100ec610584565b604051808260ff1660ff16815260200191505060405180910390f35b34801561011457600080fd5b5061011d610597565b604051808260ff1660ff16815260200191505060405180910390f35b34801561014557600080fd5b506101756004803603602081101561015c57600080fd5b81019080803560ff1690602001909291905050506105aa565b005b34801561018357600080fd5b506101b36004803603602081101561019a57600080fd5b81019080803560ff1690602001909291905050506105f5565b005b3480156101c157600080fd5b506101ca610612565b604051808260ff1660ff16815260200191505060405180910390f35b3480156101f257600080fd5b506102226004803603602081101561020957600080fd5b81019080803560ff169060200190929190505050610625565b005b34801561023057600080fd5b50610239610643565b604051808260ff1660ff16815260200191505060405180910390f35b34801561026157600080fd5b5061029e6004803603604081101561027857600080fd5b81019080803560ff169060200190929190803560ff169060200190929190505050610656565b005b3480156102ac57600080fd5b506102d9600480360360208110156102c357600080fd5b8101908080359060200190929190505050610690565b604051808260ff1660ff16815260200191505060405180910390f35b34801561030157600080fd5b5061030a6106c3565b604051808260ff1660ff16815260200191505060405180910390f35b34801561033257600080fd5b5061035f6004803603602081101561034957600080fd5b81019080803590602001909291905050506106d5565b6040518080602001828103825283818151815260200191508051906020019080838360005b8381101561039f578082015181840152602081019050610384565b50505050905090810190601f1680156103cc5780820380516001836020036101000a031916815260200191505b509250505060405180910390f35b3480156103e657600080fd5b506104a0600480360360208110156103fd57600080fd5b810190808035906020019064010000000081111561041a57600080fd5b82018360208201111561042c57600080fd5b8035906020019184600183028401116401000000008311171561044e57600080fd5b91908080601f016020809104026020016040519081016040528093929190818152602001838380828437600081840152601f19601f820116905080830192505050505050509192919290505050610790565b005b3480156104ae57600080fd5b50610582600480360360608110156104c557600080fd5b81019080803590602001906401000000008111156104e257600080fd5b8201836020820111156104f457600080fd5b8035906020019184600183028401116401000000008311171561051657600080fd5b91908080601f016020809104026020016040519081016040528093929190818152602001838380828437600081840152601f19601f820116905080830192505050505050509192919290803560ff169060200190929190803560ff1690602001909291905050506107d2565b005b600360009054906101000a900460ff1681565b600060029054906101000a900460ff1681565b600281908060018154018082558091505090600182039060005260206000209060209182820401919006909192909190916101000a81548160ff021916908360ff1602179055505050565b806000806101000a81548160ff021916908360ff16021790555050565b600060039054906101000a900460ff1681565b80600060036101000a81548160ff021916908360ff16021790555050565b600060019054906101000a900460ff1681565b81600060016101000a81548160ff021916908360ff16021790555080600060026101000a81548160ff021916908360ff1602179055505050565b60028181548110151561069f57fe5b9060005260206000209060209182820401919006915054906101000a900460ff1681565b6000809054906101000a900460ff1681565b6001818154811015156106e457fe5b906000526020600020016000915090508054600181600116156101000203166002900480601f0160208091040260200160405190810160405280929190818152602001828054600181600116156101000203166002900480156107885780601f1061075d57610100808354040283529160200191610788565b820191906000526020600020905b81548152906001019060200180831161076b57829003601f168201915b505050505081565b60018190806001815401808255809150509060018203906000526020600020016000909192909190915090805190602001906107cd92919061087e565b505050565b600183908060018154018082558091505090600182039060005260206000200160009091929091909150908051906020019061080f92919061087e565b505081600060016101000a81548160ff021916908360ff16021790555080600060036101000a81548160ff021916908360ff1602179055506003600081819054906101000a900460ff168092919060010191906101000a81548160ff021916908360ff16021790555050505050565b828054600181600116156101000203166002900490600052602060002090601f016020900481019282601f106108bf57805160ff19168380011785556108ed565b828001600101855582156108ed579182015b828111156108ec5782518255916020019190600101906108d1565b5b5090506108fa91906108fe565b5090565b61092091905b8082111561091c576000816000905550600101610904565b5090565b9056fea165627a7a7230582007b5448d33b488c0e7e407ef54ec3a06fe6240781ac8faa63945026624b6af840029",
  "source": "pragma solidity ^0.5.0;\ncontract Invitacion {\n    uint8 public dia = 0;\n    uint8 public puntero;\n    uint8 public punteroIni;\n    uint8 public contador = 1;\n    string[] public matriculas;\n    uint8[] public propietarios;\n    uint8 public nmatriculas = 0;\n\n\n   function set(uint8 _dia) public{\n      dia=_dia;\n   }\n\n   function anadirMatricula(string memory matricula ) public{\n      matriculas.push(matricula);\n   }\n\n   function anadirPuntero(uint8 _puntero, uint8 _punteroIni ) public{\n      puntero=_puntero;\n      punteroIni=_punteroIni;\n   }\n\n   function anadirContador(uint8 _contador ) public{\n      contador=_contador;\n   }\n\n   function anadirCodigo(uint8 codigo ) public{\n      propietarios.push(codigo);\n   }\n\n   function anadirTodo(string memory matricula,uint8 _puntero, uint8 _contador) public{\n      matriculas.push(matricula);\n      puntero=_puntero;\n      contador=_contador;\n      nmatriculas++;\n   }\n\n\n    function() external {\n        revert();\n} }\n",
  "sourcePath": "/Users/edermiranda/Dropbox/TFM/Factoria/fac/contracts/Invitacion.sol",
  "compiler": {
    "name": "solc",
    "version": "0.5.0+commit.1d4f565a.Emscripten.clang"
  },
  "schemaVersion": "3.0.3",
  "updatedAt": "2019-06-13T15:32:35.316Z",
  "devdoc": {
    "methods": {}
  },
  "userdoc": {
    "methods": {}
  }
}